:020000040800F2
:1000000000000220C51A0008E9150008EB150008D9
:10001000ED150008EF150008F115000800000000BC
:10002000000000000000000000000000F3150008C0
:10003000F515000800000000F7150008F915000884
:10004000151B0008151B0008151B0008151B0008D0
:10005000151B0008151B0008151B0008151B0008C0
:10006000151B0008151B0008151B0008151B0008B0
:10007000151B0008151B0008151B0008151B0008A0
:10008000151B0008151B0008151B0008151B000890
:10009000FD150008151B0008151B0008151B00089E
:1000A000151B00080D160008151B0008151B00087D
:1000B000151B0008151B0008151B0008151B000860
:1000C000151B0008151B0008151B0008151B000850
:1000D000151B00081D160008151B0008151B00083D
:1000E000151B0008151B0008151B0008151B000830
:1000F000151B0008151B0008151B0008151B000820
:10010000151B0008151B0008151B0008151B00080F
:10011000151B0008151B0008151B0008151B0008FF
:10012000151B0008151B0008151B0008151B0008EF
:10013000151B00080000000000000000151B00084F
:10014000151B0008151B0008151B0008151B0008CF
:10015000151B0008151B0008151B0008151B0008BF
:10016000151B0008151B0008151B0008151B0008AF
:10017000151B0008151B000800000000000000000F
:08018000151B0008151B000807
:1001C00010B5054C237833B9044B13B10448AFF391
:1001D00000800123237010BDD8090020000000001A
:1001E0001882000808B5034B1BB103490348AFF35D
:1001F000008008BD00000000DC0900201882000813
:1002000081F0004102E000BF83F0004330B54FEAC7
:1002100041044FEA430594EA050F08BF90EA020F34
:100220001FBF54EA000C55EA020C7FEA645C7FEAC7
:10023000655C00F0E2804FEA5454D4EB5555B8BFEA
:100240006D420CDD2C4480EA020281EA030382EA5B
:10025000000083EA010180EA020281EA0303362DED
:1002600088BF30BD11F0004F4FEA01314FF4801CC0
:100270004CEA113102D0404261EB410113F0004FD2
:100280004FEA03334CEA133302D0524263EB430389
:1002900094EA050F00F0A780A4F10104D5F1200E27
:1002A0000DDB02FA0EFC22FA05F2801841F1000182
:1002B00003FA0EF2801843FA05F359410EE0A5F156
:1002C00020050EF1200E012A03FA0EFC28BF4CF087
:1002D000020C43FA05F3C01851EBE37101F000453D
:1002E00007D54FF0000EDCF1000C7EEB00006EEB4A
:1002F0000101B1F5801F1BD3B1F5001F0CD34908D4
:100300005FEA30004FEA3C0C04F101044FEA44522A
:1003100012F5800F80F09A80BCF1004F08BF5FEAB1
:10032000500C50F1000041EB045141EA050130BD91
:100330005FEA4C0C404141EB0101013C28BFB1F5A3
:10034000801FE9D291F0000F04BF01460020B1FAEE
:1003500081F308BF2033A3F10B03B3F120020CDAC1
:100360000C3208DD02F1140CC2F10C0201FA0CF09F
:1003700021FA02F10CE002F11402D8BFC2F1200C04
:1003800001FA02F120FA0CFCDCBF41EA0C019040BA
:10039000E41AA2BF01EB0451294330BD6FEA040403
:1003A0001F3C1CDA0C340EDC04F11404C4F12002EE
:1003B00020FA04F001FA02F340EA030021FA04F300
:1003C00045EA030130BDC4F10C04C4F1200220FA57
:1003D00002F001FA04F340EA0300294630BD21FA95
:1003E00004F0294630BD94F0000F83F4801306BF5B
:1003F00081F480110134013D4EE77FEA645C18BF4F
:100400007FEA655C29D094EA050F08BF90EA020FE5
:1004100005D054EA000C04BF1946104630BD91EADD
:10042000030F1EBF0021002030BD5FEA545C05D1E0
:100430004000494128BF41F0004130BD14F580041F
:100440003CBF01F5801130BD01F0004545F0FE4193
:1004500041F470014FF0000030BD7FEA645C1ABFC8
:10046000194610467FEA655C1CBF0B46024650EAFF
:10047000013406BF52EA033591EA030F41F400212B
:1004800030BD00BF90F0000F04BF0021704730B5B1
:100490004FF4806404F132044FF000054FF0000186
:1004A00050E700BF90F0000F04BF0021704730B547
:1004B0004FF4806404F1320410F0004548BF40421C
:1004C0004FF000013EE700BF42004FEAE2014FEA71
:1004D00031014FEA02701FBF12F07F4393F07F4F4C
:1004E00081F06051704732F07F4208BF704793F04F
:1004F0007F4F04BF41F40021704730B54FF4607462
:1005000001F0004521F000411CE700BF50EA010264
:1005100008BF704730B54FF000050AE050EA01020D
:1005200008BF704730B511F0004502D5404261EB7D
:1005300041014FF4806404F132045FEA915C3FF4BE
:10054000D8AE4FF003025FEADC0C18BF03325FEA5B
:10055000DC0C18BF033202EBDC02C2F1200300FA0C
:1005600003FC20FA02F001FA03FE40EA0E0021FA31
:1005700002F11444BDE600BF70B54FF0FF0C4CF41F
:10058000E06C1CEA11541DBF1CEA135594EA0C0FD1
:1005900095EA0C0F00F0DEF82C4481EA030621EA0C
:1005A0004C5123EA4C5350EA013518BF52EA033547
:1005B00041F4801143F4801338D0A0FB02CE4FF0F9
:1005C0000005E1FB02E506F00042E0FB03E54FF029
:1005D0000006E1FB03569CF0000F18BF4EF0010E21
:1005E000A4F1FF04B6F5007F64F5407404D25FEA1D
:1005F0004E0E6D4146EB060642EAC62141EA5551D0
:100600004FEAC52040EA5E504FEACE2EB4F1FD0C11
:1006100088BFBCF5E06F1ED8BEF1004F08BF5FEA8F
:10062000500E50F1000041EB045170BD06F0004641
:1006300046EA010140EA020081EA0301B4EB5C04EE
:10064000C2BFD4EB0C0541EA045170BD41F48011E6
:100650004FF0000E013C00F3AB8014F1360FDEBF0B
:10066000002001F0004170BDC4F10004203C35DAE7
:100670000C341BDC04F11404C4F1200500FA05F36A
:1006800020FA04F001FA05F240EA020001F000420B
:1006900021F0004110EBD37021FA04F642EB060181
:1006A0005EEA430E08BF20EAD37070BDC4F10C04AB
:1006B000C4F1200500FA04F320FA05F001FA04F26F
:1006C00040EA020001F0004110EBD37041F100015B
:1006D0005EEA430E08BF20EAD37070BDC4F1200566
:1006E00000FA05F24EEA020E20FA04F301FA05F2CE
:1006F00043EA020321FA04F001F0004121FA04F276
:1007000020EA020000EBD3705EEA430E08BF20EA45
:10071000D37070BD94F0000F0FD101F0004640007F
:1007200041EB010111F4801F08BF013CF7D041EA01
:10073000060195F0000F18BF704703F00046520005
:1007400043EB030313F4801F08BF013DF7D043EAD6
:100750000603704794EA0C0F0CEA135518BF95EA8C
:100760000C0F0CD050EA410618BF52EA4306D1D113
:1007700081EA030101F000414FF0000070BD50EA32
:10078000410606BF1046194652EA430619D094EABC
:100790000C0F02D150EA013613D195EA0C0F05D1A6
:1007A00052EA03361CBF104619460AD181EA0301FA
:1007B00001F0004141F0FE4141F470014FF00000B2
:1007C00070BD41F0FE4141F4780170BD70B54FF04D
:1007D000FF0C4CF4E06C1CEA11541DBF1CEA1355CD
:1007E00094EA0C0F95EA0C0F00F0A7F8A4EB0504AF
:1007F00081EA030E52EA03354FEA013100F08880A6
:100800004FEA03334FF0805545EA131343EA12636E
:100810004FEA022245EA111545EA10654FEA002623
:100820000EF000419D4208BF964244F1FD0404F5DC
:10083000407402D25B084FEA3202B61A65EB030538
:100840005B084FEA32024FF480104FF4002CB6EBF5
:10085000020E75EB030E22BFB61A754640EA0C0075
:100860005B084FEA3202B6EB020E75EB030E22BFB5
:10087000B61A754640EA5C005B084FEA3202B6EBF6
:10088000020E75EB030E22BFB61A754640EA9C00B5
:100890005B084FEA3202B6EB020E75EB030E22BF85
:1008A000B61A754640EADC0055EA060E18D04FEA43
:1008B000051545EA16754FEA06164FEAC30343EAE3
:1008C00052734FEAC2025FEA1C1CC0D111F4801FB0
:1008D0000BD141EA00014FF000004FF0004CB6E7A9
:1008E00011F4801F04BF01430020B4F1FD0C88BF48
:1008F000BCF5E06F3FF6AFAEB5EB030C04BFB6EB53
:10090000020C5FEA500C50F1000041EB045170BD45
:100910000EF0004E4EEA113114EB5C04C2BFD4EB72
:100920000C0541EA045170BD41F480114FF0000EF6
:10093000013C90E645EA060E8DE60CEA135594EA72
:100940000C0F08BF95EA0C0F3FF43BAF94EA0C0F75
:100950000AD150EA01347FF434AF95EA0C0F7FF4EA
:1009600025AF104619462CE795EA0C0F06D152EA3E
:1009700003353FF4FDAE1046194622E750EA410622
:1009800018BF52EA43067FF4C5AE50EA41047FF433
:100990000DAF52EA43057FF4EBAE12E74FF0FF3C98
:1009A00006E000BF4FF0010C02E000BF4FF0010C69
:1009B0004DF804CD4FEA410C7FEA6C5C4FEA430CE2
:1009C00018BF7FEA6C5C1BD001B050EA410C0CBF31
:1009D00052EA430C91EA030F02BF90EA020F002093
:1009E000704710F1000F91EA030F58BF994208BFFA
:1009F00090422CBFD8176FEAE37040F001007047B7
:100A00004FEA410C7FEA6C5C02D150EA013C07D10D
:100A10004FEA430C7FEA6C5CD6D152EA033CD3D058
:100A20005DF8040B704700BF8446104662468C4652
:100A30001946634600E000BF01B5FFF7B7FF002885
:100A400048BF10F1000F01BD4DF808EDFFF7F4FFAE
:100A50000CBF012000205DF808FB00BF4DF808ED39
:100A6000FFF7EAFF34BF012000205DF808FB00BF5C
:100A70004DF808EDFFF7E0FF94BF012000205DF87E
:100A800008FB00BF4DF808EDFFF7CEFF94BF012033
:100A900000205DF808FB00BF4DF808EDFFF7C4FF2C
:100AA00034BF012000205DF808FB00BF4FEA41027F
:100AB00012F5001215D211D56FF47873B3EB6252B0
:100AC00012D94FEAC12343F0004343EA505311F0D7
:100AD000004F23FA02F018BF404270474FF0000069
:100AE000704750EA013005D111F0004008BF6FF0A7
:100AF000004070474FF00000704700BF4FEA4102CE
:100B0000B2F1E04324BFB3F5001CDCF1FE5C0DD96B
:100B100001F0004C4FEAC0024CEA5070B2F1004FB5
:100B200040EB830008BF20F00100704711F0804FB8
:100B300021D113F13872BCBF01F00040704741F47D
:100B400080114FEA5252C2F11802C2F1200C10FA81
:100B50000CF320FA02F018BF40F001004FEAC12365
:100B60004FEAD32303FA0CFC40EA0C0023FA02F309
:100B70004FEA4303CCE77FEA625307D150EA0133DF
:100B80001EBF4FF0FE4040F44000704701F00040AF
:100B900040F0FE4040F40000704700BF53B94AB92E
:100BA000002908BF00281CBF4FF0FF314FF0FF3075
:100BB00000F06EB9ADF1080C6DE904CE00F006F856
:100BC000DDF804E0DDE9022304B070472DE9F047C9
:100BD000089D04468C46002B40F083808A421746CD
:100BE00047D9B2FA82F242B1C2F1200024FA00F0F1
:100BF0009140974040EA010C94404FEA1748230C7B
:100C0000BCFBF8F61FFA87FE08FB16C143EA014356
:100C100006FB0EF1994209D9FB1806F1FF3080F06E
:100C20001981994240F21681023E3B445B1AA4B2FC
:100C3000B3FBF8F008FB103344EA034400FB0EFE5C
:100C4000A64509D93C1900F1FF3380F00581A6457E
:100C500040F2028102383C4440EA0640A4EB0E0414
:100C600000261DB1D4400023C5E900433146BDE84C
:100C7000F08702B9FFDEB2FA82F2002A50D1CB1B14
:100C80004FEA174E1FFA87F80126B3FBFEFC210C32
:100C90000EFB1C3341EA034108FB0CF38B4207D9DE
:100CA00079180CF1FF3002D28B4200F2E9808446C1
:100CB000C91AA3B2B1FBFEF00EFB101143EA0144C6
:100CC00008FB00F8A04507D93C1900F1FF3302D218
:100CD000A04500F2D9801846A4EB080440EA0C4075
:100CE000BFE78B4209D9002D00F0B1800026C5E98D
:100CF000000130463146BDE8F087B3FA83F6002E96
:100D00004AD18B4202D3824200F2B880841A61EB4E
:100D1000030101208C46002DA8D0C5E9004CA5E7B1
:100D2000C2F1200320FA03F6974001FA02F04FEADD
:100D3000174ED9403043030CB1FBFEF61FFA87F87B
:100D40000EFB161143EA014306FB08F1994204FA2F
:100D500002F409D9FB1806F1FF3C80F08D8099421E
:100D600040F28A80023E3B445B1A81B2B3FBFEF044
:100D70000EFB103341EA034100FB08F38B4207D915
:100D8000791800F1FF3C73D28B4271D90238394493
:100D9000CB1A40EA064678E7C6F1200C03FA06F4BF
:100DA00022FA0CF31C4320FA0CF701FA06F34FEA7F
:100DB000144E21FA0CF11F433B0CB1FBFEF91FFA54
:100DC00084F80EFB191143EA014109FB08FA8A4530
:100DD00002FA06F200FA06F308D9611809F1FF30A9
:100DE00048D28A4546D9A9F102092144A1EB0A015A
:100DF000BFB2B1FBFEF00EFB101147EA014700FB4A
:100E000008F8B84507D9E71900F1FF312ED2B845E7
:100E10002CD90238274440EA0940A7EB0807A0FB79
:100E200002894F45C64649461AD317D05DB1B3EB88
:100E30000E0267EB010707FA0CFCF2404CEA0202D3
:100E4000F740C5E9002700263146BDE8F0872E4669
:100E500028460BE70646E9E61846FDE64345E5D297
:100E6000B8EB020E69EB04010138DFE70846D2E770
:100E700060468DE78146B9E7664675E730464AE742
:100E8000ACF1020C394413E702383C4424E700BFBC
:100E9000704700BF000000000000000000000000DC
:100EA00001F0FF01102A2BDB10F0070F08D010F81B
:100EB000013B013A8B422DD010F0070F42B3F6D11F
:100EC000F0B441EA012141EA014122F007047FF038
:100ED00000070023F0E80256083C85EA010586EA8F
:100EE000010685FA47F5A3FA87F586FA47F6A5FACB
:100EF00087F68EB9EED1F0BC01F0FF0102F00702D7
:100F000032B110F8013B013A83EA010313B1F8D181
:100F10000020704701387047002D06BF3546033862
:100F2000073815F0010F07D1013015F4807F02BF9B
:100F3000013015F4C03F0130F0BC0138704700BFEC
:100F4000844641EA000313F003036DD1403A41D3D4
:100F500051F8043B40F8043B51F8043B40F8043B93
:100F600051F8043B40F8043B51F8043B40F8043B83
:100F700051F8043B40F8043B51F8043B40F8043B73
:100F800051F8043B40F8043B51F8043B40F8043B63
:100F900051F8043B40F8043B51F8043B40F8043B53
:100FA00051F8043B40F8043B51F8043B40F8043B43
:100FB00051F8043B40F8043B51F8043B40F8043B33
:100FC00051F8043B40F8043B51F8043B40F8043B23
:100FD000403ABDD2303211D351F8043B40F8043BC3
:100FE00051F8043B40F8043B51F8043B40F8043B03
:100FF00051F8043B40F8043B103AEDD20C3205D3D3
:1010000051F8043B40F8043B043AF9D2043208D0CA
:10101000D2071CBF11F8013B00F8013B01D30B883C
:1010200003806046704700BF082A13D38B078DD01A
:1010300010F003038AD0C3F10403D21ADB071CBFEC
:1010400011F8013B00F8013B80D331F8023B20F856
:10105000023B7BE7043AD9D3013A11F8013B00F88F
:10106000013BF9D20B7803704B7843708B78837017
:101070006046704700000000000000000000000013
:1010800090F800F06DE9024520F007016FF0000CC8
:1010900010F0070491F820F040F049804FF0000470
:1010A0006FF00700D1E9002391F840F000F108004B
:1010B00082FA4CF2A4FA8CF283FA4CF3A2FA8CF383
:1010C0004BBBD1E9022382FA4CF200F10800A4FAEA
:1010D0008CF283FA4CF3A2FA8CF3E3B9D1E904233E
:1010E00082FA4CF200F10800A4FA8CF283FA4CF375
:1010F000A2FA8CF37BB9D1E9062301F1200182FA2F
:101100004CF200F10800A4FA8CF283FA4CF3A2FA34
:101110008CF3002BC6D0002A04BF04301A4612BA42
:10112000B2FA82F2FDE8024500EBD2007047D1E945
:10113000002304F00305C4F100004FEAC50514F0D4
:10114000040F91F840F00CFA05F562EA05021CBFA5
:1011500063EA050362464FF00004A9E74FEA410C39
:101160007FEA6C5C02D150EA013C0AD14FEA430CA1
:101170007FEA6C5C02D152EA033C02D14FF00000DE
:1011800070474FF00100704708B50D480D4B0360E4
:101190000323436000238360C3604FF41022026185
:1011A0004FF400124261037643768376C376037769
:1011B000437700F0F1FC00B908BD00F0E5F8FBE76B
:1011C000F80900200064004008B50D480D4B03608D
:1011D0000323436000238360C3604FF41022026145
:1011E0004FF400124261037643768376C376037729
:1011F000437700F0D1FC00B908BD00F0C5F8FBE76B
:10120000200A00200068004010B58AB00023059332
:10121000069307930893099303683C4A934204D0CA
:101220003B4A934237D00AB010BD3A4A13680133A3
:101230001360012B22D000240194374B1A6B42F02B
:1012400001021A631B6B03F001030193019B4FF42E
:10125000C05305930223069307940323089309239D
:10126000099305A92D4801F00FF9224621461420C3
:1012700001F06AF8142001F09BF8D4E700230093F2
:10128000254B1A6C42F000721A641B6C03F0007359
:101290000093009BCFE7002302931F4B1A6C42F090
:1012A00080621A641B6C03F080630293029B194AEC
:1012B000136801331360012B1AD000210491164BDF
:1012C0001A6B42F002021A631B6B03F002030493D1
:1012D000049B4FF440530593022306930791032385
:1012E00008930923099305A90D4801F0CDF89AE761
:1012F00000230393084B1A6C42F000721A641B6CB3
:1013000003F000730393039BD7E700BF0064004022
:1013100000680040F409002000380240000002404C
:101320000004024084B000220192104B196B41F07E
:1013300080011963196B01F08001019101990292FA
:10134000196B41F002011963196B01F0020102915E
:10135000029903921A6B42F001021A631B6B03F0AD
:1013600001030393039B04B0704700BF00380240A1
:1013700008B50268034B9A4200D008BD00F0E6FBB6
:10138000FBE700BF0000014072B6FEE700B595B074
:101390003022002108A802F0B3FD00230393049338
:1013A0000593069307930193214A116C41F08051F4
:1013B0001164126C02F080520192019A02931D4B4B
:1013C0001A6842F480421A601B6803F48043029357
:1013D000029B012308934FF48033099302230E9359
:1013E0004FF480020F92192210924FF4A8721192BA
:1013F00012930423139308A801F030F998B90F232E
:10140000039302230493002305934FF4A053069300
:101410004FF480530793052103A801F06BFB20B91B
:1014200015B05DF804FBFFF7AFFFFFF7ADFF00BF9E
:1014300000380240007000402DE9F04186B000F015
:101440006BFBFFF7A3FFFFF76DFFFFF79DFEFFF7B5
:10145000BBFE00F019F902F059FA2B4C9FED1E3B30
:101460009FED1F2B9FED201B9FED210B204602F0CF
:101470009AF99FED211B9FED220B204602F09CF96B
:1014800000F070FB214ED6ED007AFDEEE77A17EE04
:10149000903A18B203460246014602F061FC1C4F26
:1014A000B869FFF711F804460D46D7F83080306868
:1014B000FFF70AF806460F464046FFF705F8CDE964
:1014C0000401CDE90245CDE9004532463B461148CD
:1014D00000F03EF9D6E700BF9A9999999999C93FCA
:1014E0000000000000002E400000000000007440DA
:1014F00000000000000054400000000080FFCFC04A
:101500000000000080FFCF40B40C00201400002039
:10151000F81200203082000882B0002100910B4BAD
:101520005A6C42F480425A645A6C02F4804200922F
:10153000009A01911A6C42F080521A641B6C03F0FD
:1015400080530193019B02B0704700BF00380240F6
:1015500030B589B00546002401941E4B5A6C42F008
:1015600001025A645B6C03F001030193019B02A921
:1015700003A801F095FB01F083FB43001648A0FB94
:1015800003239B0C013B1548154A026040F2E732E9
:10159000C260436004618460846101F00BFD044615
:1015A00010B1204609B030BD0C4801F099FB04464B
:1015B0000028F6D1192000F0FBFE0F2D01D90124DF
:1015C000EFE700222946192000F0BEFE054B1D6002
:1015D000E7E700BF0038024083DE1B43500A0020CB
:1015E0000000014020000020FEE7FEE7FEE7FEE7E6
:1015F000FEE77047704770477047000008B5024823
:1016000000F06AFD08BD00BFF809002008B50248D7
:1016100001F0AEFB08BD00BF500A002008B502482B
:1016200001F048FF08BD00BF6C0B002010B5034659
:101630000C4A0D490D48006840B10C48006803444D
:10164000521A934206D8094A136010BD0748084C45
:101650000460F2E702F02AFC0C2303604FF0FF3035
:10166000F3E700BF0000022000040000980A0020F9
:1016700028150020034AD2F8883043F47003C2F8DA
:101680008830704700ED00E008B50D480D4B036051
:101690004FF4E133436000238360C36003610C2295
:1016A00042618361C36101F0E1FD28B9012206496D
:1016B000034802F05CF808BDFFF766FEF6E700BFDE
:1016C0006C0B002000100140640B002010B588B0A6
:1016D000002303930493059306930793026803F191
:1016E000804303F588339A4201D008B010BD00242E
:1016F000019403F594335A6C42F010025A645A6C08
:1017000002F010020192019A02941A6B42F0010257
:101710001A631B6B03F001030293029B4FF4C06337
:10172000039302230493059403230693072307934B
:1017300003A9064800F0A8FE22462146252000F015
:1017400003FE252000F034FECFE700BF000002407A
:101750000FB410B502AA52F8041B084B1A60084CCB
:10176000204602F031FC642382B22146054801F094
:10177000ACFDBDE8104004B0704700BF680B00200E
:10178000B00B00206C0B00200023194603E0212A37
:101790000AD00133DBB2C72B1ED8534AD25C3D2A94
:1017A000F5D1591CC9B2F2E7013BDBB24E4A525C9B
:1017B0002D2A13D000225B1ADBB20133DBB2042BDB
:1017C0006BD030B4052B0DD0062B34D09FED470ADB
:1017D000002A5FD130BC70470023E7E70131C9B26E
:1017E0000122E8E7404C605C303800EB80004300A9
:1017F000481C205C3038034400EE103ACB1CE35CFC
:10180000303B07EE903AF8EEE77A9FED397A67EED3
:10181000877AB8EEC00A30EE270A0431635C303BA9
:1018200007EE903AF8EEE77A9FED327A67EE877A24
:1018300030EE270ACCE72C4C635C303B481C205C24
:10184000303800EB80004500642000FB0353881C07
:10185000205C3038034400EE103A0B1DE35C303B53
:1018600007EE903AF8EEE77A9FED217A67EE877AF5
:10187000B8EEC00A30EE270A0531635C303B07EE54
:10188000903AF8EEE77A9FED1B7A67EE877A30EEB2
:10189000270A9DE7B1EE400A9CE71348435C303BC2
:1018A00000EE103A8B1CC35C303B07EE903AF8EE2A
:1018B000E77A9FED0F7A67EE877AB8EEC00A30EECE
:1018C000270A0331435C303B07EE903AF8EEE77AA3
:1018D0009FED087A67EE877A30EE270A02B97047E3
:1018E000B1EE400A704700BF9C0A002000000000D3
:1018F000CDCCCC3D0AD7233C10B50446FFF744FFBE
:10190000012C00D010BD484B1A78502A0AD0492A21
:1019100024D0442A32D0542A13D1444B83ED000AF8
:10192000002343E0424B83ED000A002307E0C3EBB2
:10193000C300404901EB001181ED030A0133032B81
:10194000F5DD702A35D0692A43D0642A51D0742A33
:10195000D8D1394B83ED000A002362E0374B83ED89
:10196000000A002307E0C3EBC300324901EB00117A
:1019700081ED040A0133032BF5DDE2E7304B83ED03
:10198000000A002307E0C3EBC3002A4901EB001162
:1019900081ED050A0133032BF5DDD2E7C3EBC3006C
:1019A000244901EB001181ED010A0133032BF5DD20
:1019B000C7E7244B83ED000A002307E0C3EBC30114
:1019C000214A02EB011282ED030A0133032BF5DDFC
:1019D00098E71E4B83ED000A002307E0C3EBC30129
:1019E000194A02EB011282ED040A0133032BF5DDE3
:1019F00088E7174B83ED000A002307E0C3EBC30120
:101A0000114A02EB011282ED050A0133032BF5DDC9
:101A100078E7C3EBC3010C4A02EB011282ED010A25
:101A20000133032BF5DD6DE79C0A00201000002038
:101A30000800002038110020140000204C0A00206B
:101A4000480A00200C000020F812002004000020AA
:101A5000000000200268164B9A4200D0704710B573
:101A6000144A138801339BB21380013B124A127847
:101A70001249CA54212A07D00F4900230B700122B2
:101A80000F4801F074FE10BD00240A4B1B88A342CE
:101A900004DD0120FFF730FF0134F6E7C822002102
:101AA000064802F02DFA034B00221A80E4E700BF3B
:101AB00000100140660B0020640B00209C0A0020EF
:101AC0006C0B0020DFF834D00D480E490E4A00237D
:101AD00002E0D458C4500433C4188C42F9D30B4AE2
:101AE0000B4C002301E013600432A242FBD3FFF74A
:101AF000C1FD02F0E1F9FFF79FFC704700000220F2
:101B000000000020D8090020FC840008D80900202B
:101B100024150020FEE7000008B50B4B1A6842F4BC
:101B200000721A601A6842F480621A601A6842F4FD
:101B300080721A60032000F0F5FB0F20FFF708FD0C
:101B4000FFF7EAFC002008BD003C0240034A116890
:101B5000034B1B780B441360704700BFB00C002090
:101B60001C000020014B1868704700BFB00C00201B
:101B700038B50446FFF7F6FF0546B4F1FF3F02D043
:101B8000044B1B781C44FFF7EDFF401BA042FAD327
:101B900038BD00BF1C000020002800F0A18038B52F
:101BA000044690F82030D3B12268136843F0010353
:101BB0001360FFF7D7FF054623685A6812F0010F3C
:101BC00010D1FFF7CFFF401B0A28F5D9636A43F411
:101BD00000336362052384F82030012038BDFFF70D
:101BE00013FBE1E71A6822F002021A60FFF7BAFF5E
:101BF000054623685A6812F0020F0DD0FFF7B2FFB6
:101C0000401B0A28F5D9636A43F400336362052355
:101C100084F820300120E1E7227E012A3DD01A68B5
:101C200022F080021A60637E012B3BD02268136889
:101C300023F040031360A37E012B39D02268136880
:101C400023F020031360E37E012B37D02268136852
:101C500043F010031360237F012B35D022681368F3
:101C600023F008031360637F012B33D022681368CD
:101C700023F004031360A368E2681343226913434B
:101C8000626913436268013A21681343CB61002003
:101C90006062012384F82030A0E71A6842F08002D5
:101CA0001A60C0E72268136843F040031360C2E77C
:101CB0002268136843F020031360C4E722681368A6
:101CC00023F010031360C6E72268136843F008038B
:101CD0001360C8E72268136843F004031360CAE77F
:101CE0000120704790F82030013BDBB2012B05D971
:101CF000436A43F4802343620120704770B4444B2D
:101D0000D3F8002242F00102C3F80022D3F80022E7
:101D100022F47C52C3F80022D3F80022486A42EA37
:101D20000022C3F800224A6902F01F02012000FAD3
:101D300002F2D3F81C02D44320EA0200C3F81C02CA
:101D4000CB69B3B9324BD3F80C022040C3F80C0274
:101D5000CE688D88486945EA0645483043F83050DA
:101D60008E6808884D6940EA0640483503EBC50394
:101D70005860CB69012B1DD08B69002B32D12448D0
:101D8000D0F804322340C0F804320B698BBB204BDF
:101D9000D3F814020440C3F814420B6A012B2FD06D
:101DA0001B4AD2F8003223F00103C2F800320020AF
:101DB00070BC7047164BD3F80C021043C3F80C02EA
:101DC0000E688D88486945EA0645483043F830502A
:101DD0008E6888894D6940EA0640483503EBC503A3
:101DE0005860C9E70A48D0F804321343C0F80432F7
:101DF000CBE70748D0F814321343C0F81432CCE7CD
:101E00000349D1F81C321A43C1F81C22C8E700BFAD
:101E10000064004070B5044690F82050EDB2012DEA
:101E200006D0436A43F4002343620125284670BD6F
:101E3000022380F820300268136823F00103136046
:101E4000FFF790FE064623685B6813F0010F0CD085
:101E5000FFF788FE831B0A2BF5D9636A43F400332E
:101E60006362052384F82030E0E700256562DDE742
:101E700070B490F820400568AD68013CE4B2012CD4
:101E800065D815F0E05F5CD0C5F30164022C05D97C
:101E9000436A43F40003436201205DE00125A5404D
:101EA0001D608B68002B39D10E68CB68056843EA4A
:101EB000465604F118031B01EE5003680D6904F146
:101EC000180603EB06135D600B7D012B31D0D17931
:101ED00093791B0443EA0163517943EA012315799D
:101EE00001682B4301EB0411C1F88C31D178937850
:101EF0001B0443EA0163517843EA01231178026825
:101F00000B4302EB0412C2F8883102681834240132
:101F1000135943F00103135100201DE04D6843EABB
:101F2000C503CD6806682B4304F118052D017351D4
:101F3000C3E7036803EB0613596841F480715960E5
:101F4000C5E7436A43F400134362012004E0436A97
:101F500043F480234362012070BC704730B490F892
:101F60002040013CE4B2012C00F2918051B9046898
:101F7000E46814F0030F10D1436A43F40013436282
:101F8000012089E00468246914F0030F05D1436A35
:101F900043F40013436201207EE0056801F11B0455
:101FA00024012C5904F004049460002C61D10568CC
:101FB00001F11B0424012C59640D1460056801F122
:101FC0001B0424012D5905F00205D5600568254440
:101FD0006D6805F00F051561056825446D68C5F34A
:101FE0000725956105682C446468240C54610268D7
:101FF00002EB0112D2F8B8211A70026802EB01124A
:10200000D2F8B821C2F307225A70026802EB01121B
:10201000D2F8B821C2F307429A70026802EB0112AB
:10202000D2F8B821120EDA70026802EB0112D2F86F
:10203000BC211A71026802EB0112D2F8BC21C2F372
:1020400007225A71026802EB0112D2F8BC21C2F3D6
:1020500007429A71026802EB0112D2F8BC21120EFB
:10206000DA7171B90268D36843F02003D3600020AD
:1020700012E0056801F11B0424012C59E4085460A6
:102080009CE70268136943F020031361EFE7436A9A
:1020900043F480234362012030BC704790F8203025
:1020A000013BDBB2012B05D9436A43F48023436231
:1020B000012070470268536919435161002070473D
:1020C0007047704770477047704770477047704758
:1020D00070477047704770472DE9F84F0546036811
:1020E0005C69D3F804809F68D3F80CB0D3F810A0D3
:1020F000D3F8189014F001063BD017F0010616D063
:1021000001229A6017F0020F08D117F0040F0CD1CA
:1021100017F0080606D04FF4805608E0FFF7D0FF0E
:10212000002604E0FFF7CFFF01E04FF4006617F44C
:10213000807F0DD02B684FF480729A6017F4007F77
:1021400040F0868017F4806F00F0868046F40056D9
:1021500017F4803F0DD02B684FF480329A6017F44B
:10216000003F40F0838017F4802F00F0838046F416
:10217000004614F0080F07D01BF0100F04D046F4EF
:1021800000762B681022DA6014F0040F02D01BF0E6
:10219000080F79D114F0020F04D02B68DB6813F01C
:1021A000030F78D114F0400F07D01AF0100F04D0AD
:1021B00046F480662B6810221A6114F0200F02D0BA
:1021C0001AF0080F6BD114F0100F04D02B681B69A4
:1021D00013F0030F6AD114F4003F02D018F0100F6F
:1021E00068D114F4803F02D018F0080F69D114F4BC
:1021F000004F7AD018F0040F74D014F4807F04D00C
:1022000019F0010F01D046F0010614F4007F04D04C
:1022100019F0020F01D046F0020614F4806F04D0CA
:1022200019F0040F01D046F0040614F4006F59D0E1
:1022300019F0700956D0B9F1400F65D058D8B9F1EE
:10224000200F5ED0B9F1300F42D146F0200644E0B5
:102250002846FFF736FF7BE717F4006F02D046F4FD
:10226000804675E72846FFF72FFF71E72846FFF7FE
:1022700029FF7EE717F4002F02D046F4803678E776
:102280002846FFF722FF74E72B680822DA60284609
:10229000FFF71CFF7EE7284601F066FB82E72B680C
:1022A00008221A612846FFF713FF8CE72846FFF73C
:1022B0000EFF90E72B6810225A602846FFF709FFAF
:1022C0008FE72B6808225A602846FFF703FF8EE746
:1022D000B9F1100F01D146F008062A68936923F07E
:1022E000700393612B6804225A609EB9BDE8F88F91
:1022F000B9F1500F0BD0B9F1600FEED146F48076F2
:10230000EBE746F01006E8E746F04006E5E746F062
:102310008006E2E76B6A1E436E622846FFF7DBFE2B
:10232000E4E70000074AD36823F4E0631B041B0CB6
:10233000000200F4E060034343F0BF6343F4003362
:10234000D360704700ED00E030B4174BDB68C3F397
:102350000223C3F10704042C28BF04241D1D062DED
:1023600018D9033B4FF0FF3505FA04F421EA0401C4
:10237000994005FA03F322EA0303194300280BDB13
:102380000901C9B200F1604000F5614080F8001316
:1023900030BC70470023E5E700F00F000901C9B227
:1023A000024B1954F4E700BF00ED00E014ED00E02B
:1023B000002807DB00F01F02400901239340024A76
:1023C00042F82030704700BF00E100E070B50446DD
:1023D000866DFFF7C7FB94F83530DBB2022B06D0D1
:1023E00080236365002384F83430012070BD0546E6
:1023F0002268136823F0160313602268536923F0E0
:1024000080035361236CE3B12268136823F008034F
:1024100013602268136823F00103136023681B68AC
:1024200013F0010F11D0FFF79DFB431B052BF5D9CE
:1024300020236365032084F83500002384F83430BA
:10244000D4E7A36C002BDFD1E3E7E26D3F23934099
:10245000B360012384F83530002084F83400C5E7E8
:1024600090F83530DBB2022B03D080234365012086
:102470007047052380F835300268136823F00103A4
:10248000136000207047000000230F2B00F2DD8056
:10249000F0B482B05DE086685F000324BC4026EAA9
:1024A0000406CC68BC4034438460466826EA0206D1
:1024B0004C68C4F300129A403243426057E0DC0893
:1024C000083450F8247003F0070296000F22B2403F
:1024D00027EA02070A69B2403A4340F824205AE04A
:1024E000072200E00022B2403A430234574E46F839
:1024F0002420574A9468EA4324EA05064F6817F4F3
:10250000801F01D045EA0406514CA660E46802EA47
:1025100004064F6817F4001F01D045EA04064C4C2E
:10252000E660646802EA04064F6817F4003F01D0D1
:1025300045EA0406464C6660246822404E6816F45C
:10254000803F01D045EA0402414C226001330F2B49
:1025500078D801229A400C6804EA020532EA0404A1
:10256000F4D14C6804F00304013C012C93D94A686F
:1025700002F00302032A09D0C4685E000322B240BD
:1025800024EA02048A68B2402243C2604A6802F028
:102590000302022A93D004685E000322B24024EAB8
:1025A00002044A6802F00302B240224302604A6811
:1025B00012F4403FCAD000220192264A546C44F4DF
:1025C00080445464526C02F480420192019A9C0847
:1025D000A61C1E4A52F8267003F0030296000F2232
:1025E000B24027EA02071C4A90423FF47BAF02F553
:1025F000806290421AD002F58062904218D002F5B3
:102600008062904216D002F58062904214D002F5AA
:102610008062904212D002F58062904210D002F5A2
:10262000806290423FF45CAF08225CE701225AE7E7
:10263000022258E7032256E7042254E7052252E714
:10264000062250E702B0F0BC7047704700380140E6
:10265000003C01400038024000000240002800F029
:10266000DF8170B582B00446036813F0010F3BD0E0
:10267000A64B9B6803F00C03042B2CD0A34B9B6848
:1026800003F00C03082B21D06368B3F5803F4FD0D3
:10269000B3F5A02F52D09D4B1A6822F480321A60F5
:1026A0001A6822F480221A606368002B50D0FFF76A
:1026B00059FA0546954B1B6813F4003F14D1FFF7F8
:1026C00051FA401B6428F5D90320B0E18F4B5B68B9
:1026D00013F4800FD8D08D4B1B6813F4003F03D048
:1026E0006368002B00F09E81236813F0020F54D022
:1026F000864B9B6813F00C0F3ED0844B9B6803F015
:102700000C03082B33D0E368002B67D0804B0122E9
:102710001A60FFF727FA05467C4B1B6813F0020F7F
:1027200053D1FFF71FFA401B0228F5D903207EE1A1
:10273000764A136843F480331360B5E7734B1A6825
:1027400042F480221A601A6842F480321A60ABE7C1
:10275000FFF708FA05466D4B1B6813F4003FC3D022
:10276000FFF700FA401B6428F5D903205FE1674BAF
:102770005B6813F4800FC6D1644B1B6813F0020F23
:1027800003D0E368012B40F04F81604A136823F0C7
:10279000F803216943EAC1031360236813F0080FAB
:1027A00040D0636963B35B4B01221A60FFF7DAF92B
:1027B0000546564B5B6F13F0020F33D1FFF7D2F98A
:1027C000401B0228F5D9032031E1504A136823F059
:1027D000F803216943EAC1031360DEE74C4B002292
:1027E0001A60FFF7BFF90546484B1B6813F0020F4C
:1027F000D3D0FFF7B7F9401B0228F5D9032016E123
:10280000444B00221A60FFF7ADF905463F4B5B6F62
:1028100013F0020F06D0FFF7A5F9401B0228F5D9E7
:10282000032004E1236813F0040F78D0374B1B6CAE
:1028300013F0805F0DD100230193344B1A6C42F0EA
:1028400080521A641B6C03F080530193019B012595
:1028500000E00025304B1B6813F4807F21D0A36873
:10286000012B32D0052B36D0284B1A6F22F00102F3
:102870001A671A6F22F004021A67A368002B34D07B
:10288000FFF770F90646214B1B6F13F0020F45D17D
:10289000FFF768F9801B41F288339842F3D903208F
:1028A000C5E01D4A136843F480731360FFF75AF9BB
:1028B0000646194B1B6813F4807FD0D1FFF752F9FD
:1028C000801B0228F5D90320B1E0104A136F43F0B2
:1028D00001031367D1E70D4B1A6F42F004021A6728
:1028E0001A6F42F001021A67C7E7FFF73BF9064685
:1028F000064B1B6F13F0020F10D0FFF733F9801B4C
:1029000041F288339842F3D9032090E00038024026
:1029100000004742800E474200700040EDB9A369B5
:10292000002B00F08380494A926802F00C02082ACA
:1029300051D0022B17D0464B00221A60FFF712F934
:102940000446424B1B6813F0007F42D0FFF70AF9A0
:10295000001B0228F5D9032069E03C4A136C23F0E0
:1029600080531364DBE73A4B00221A60FFF7FAF852
:102970000546364B1B6813F0007F06D0FFF7F2F8D0
:10298000401B0228F5D9032051E0E369226A134372
:10299000626A43EA8213A26A5208013A43EA024396
:1029A000E26A43EA0263294A5360294B01221A6012
:1029B000FFF7D8F80446254B1B6813F0007F06D1BB
:1029C000FFF7D0F8001B0228F5D903202FE00020E4
:1029D0002DE000202BE0012B2BD01C4B5B6803F477
:1029E0008001E269914226D103F03F02216A8A42C6
:1029F00023D1616A47F6C0721A40B2EB811F1ED123
:102A000003F44031A26A5208013AB1EB024F18D1E7
:102A100003F07063E26AB3EB026F14D1002006E0AA
:102A200001207047012002E0012000E0002002B0F8
:102A300070BD0120FBE70120F9E70120F7E7012045
:102A4000F5E70120F3E70120F1E700BF003802407D
:102A500060004742F8B5244B9B6803F00C03042B3D
:102A60003DD0082B3DD1204B5A6802F03F025B68F5
:102A700013F4800F12D01C4B5968C1F38811002346
:102A80001A48A1FB0001FEF789F8174B5B68C3F3F6
:102A9000014301335B00B0FBF3F023E0124B5B68B2
:102AA000C3F388135C010025E41A65F10005AE014B
:102AB00046EA9466A701381B66EB0501CC0044EAA0
:102AC0005074C500E81844F100018B0243EA9053AA
:102AD0008402204619460023FEF760F8D5E7034834
:102AE00000E00348F8BD00BF0038024040787D0197
:102AF0000024F400002800F09B8070B50D460446C9
:102B00004F4B1B6803F007038B4208D2CBB24C4AF1
:102B10001370136803F007038B4240F08B80236827
:102B200013F0020F17D013F0040F04D0454A936836
:102B300043F4E0539360236813F0080F04D0414A34
:102B4000936843F4604393603E4A936823F0F00334
:102B5000A1680B439360236813F0010F32D06368C0
:102B6000012B21D09A1E012A25D9364A126812F06B
:102B7000020F61D033498A6822F0030213438B604D
:102B8000FEF7F0FF06462F4B9B6803F00C036268CC
:102B9000B3EB820F16D0FEF7E5FF801B41F28833BE
:102BA0009842F0D9032042E0264A126812F4003F0E
:102BB000E0D101203BE0234A126812F0007FD9D116
:102BC000012034E01E4B1B6803F00703AB4207D91A
:102BD000EAB21B4B1A701B6803F00703AB422DD1FE
:102BE000236813F0040F06D0164A936823F4E053C9
:102BF000E1680B439360236813F0080F07D0114A74
:102C0000936823F46043216943EAC1039360FFF7AB
:102C100021FF0C4B9B68C3F303130B4AD35CD840D2
:102C20000A4B18600A4B1868FEF792FC002070BD32
:102C3000012070470120FAE70120F8E70120F6E7BC
:102C4000003C024000380240488200081800002082
:102C500020000020014B1868704700BF18000020BA
:102C600008B5FFF7F7FF044B9B68C3F38223034AC1
:102C7000D35CD84008BD00BF00380240588200082D
:102C800008B5FFF7E7FF044B9B68C3F34233034AE1
:102C9000D35CD84008BD00BF00380240588200080D
:102CA0000F2303600B4B9A6802F0030242609A689C
:102CB00002F0F00282609A6802F4E052C2609B68FF
:102CC000DB0803F4E0530361034B1B6803F00703C5
:102CD0000B60704700380240003C02407047000023
:102CE00090F83D30DBB2012B37D1022380F83D3024
:102CF0000268D36843F00103D3600368194A934222
:102D000020D0B3F1804F1DD0A2F57C42934219D060
:102D100002F58062934215D002F58062934211D091
:102D200002F5784293420DD002F57052934209D0D9
:102D3000A2F59432934205D01A6842F001021A605B
:102D4000002070479A6802F00702062A07D01A6826
:102D500042F001021A6000207047012070470020F5
:102D6000704700BF000001407047704770477047D0
:102D700010B5044603681A6912F0020F11D0DA6820
:102D800012F0020F0DD06FF002021A6101230377D7
:102D900003689B6913F0030F70D0FFF7E6FF002371
:102DA000237723681A6912F0040F12D0DA6812F040
:102DB000040F0ED06FF004021A61022323772368F8
:102DC0009B6913F4407F5FD02046FFF7CEFF0023BE
:102DD000237723681A6912F0080F12D0DA6812F00C
:102DE000080F0ED06FF008021A61042323772368BE
:102DF000DB6913F0030F4ED02046FFF7B6FF002328
:102E0000237723681A6912F0100F12D0DA6812F0D3
:102E1000100F0ED06FF010021A6108232377236879
:102E2000DB6913F4407F3DD02046FFF79EFF00236F
:102E3000237723681A6912F0010F03D0DA6812F0C1
:102E4000010F36D123681A6912F0800F03D0DA68B7
:102E500012F0800F34D123681A6912F0400F03D0AA
:102E6000DA6812F0400F32D123681A6912F0200F8D
:102E700003D0DA6812F0200F30D110BDFFF774FFD5
:102E80002046FFF773FF8AE72046FFF76DFF2046D5
:102E9000FFF76CFF9BE72046FFF766FF2046FFF732
:102EA00065FFACE72046FFF75FFF2046FFF75EFFB8
:102EB000BDE76FF001021A612046FEF759FAC1E73B
:102EC0006FF080021A61204600F0A1F8C3E76FF0AE
:102ED00040021A612046FFF74AFFC5E76FF0200263
:102EE0001A61204600F092F8C7E700000368304AF4
:102EF000904212D0B0F1804F0FD0A2F57C429042A8
:102F00000BD002F58062904207D002F580629042B9
:102F100003D002F57842904203D123F070034A684F
:102F20001343234A90422AD0B0F1804F27D0A2F514
:102F30007C42904223D002F5806290421FD002F57D
:102F4000806290421BD002F57842904217D002F581
:102F50007052904213D002F5806290420FD002F579
:102F6000806290420BD0A2F59832904207D002F5D1
:102F70008062904203D002F58062904203D123F434
:102F80004073CA68134323F080034A691343036004
:102F90008B68C3620B688362054B984203D003F5CC
:102FA0008063984201D10B69036301234361704739
:102FB0000000014040B310B5044690F83D30F3B135
:102FC000022384F83D30214651F8040BFFF78EFFB1
:102FD000012384F8463084F83E3084F83F3084F88A
:102FE000403084F8413084F8423084F8433084F82B
:102FF000443084F8453084F83D30002010BD80F81E
:103000003C30FFF76BFEDBE70120704770477047ED
:10301000026802F10C0353E8003F23F490730C3272
:1030200042E800310029F3D1026802F1140353E8A9
:10303000003F23F00103143242E800310029F3D1AC
:10304000036B012B05D0202380F83E30002303635F
:103050007047026802F10C0353E8003F23F01003AD
:103060000C3242E800310029F3D1ECE790F83D3012
:10307000DBB2212B01D0022070478368B3F5805F5B
:1030800017D0036A5A1C02621A7803685A60C38C0C
:103090009BB2013B9BB2C3844BB90268D36823F057
:1030A0008003D3600268D36843F04003D3600020FC
:1030B00070470369002BE4D1036A1B880268C3F3DD
:1030C00008035360036A02330362E0E770B5044605
:1030D0000268136923F44053C1680B43136183688A
:1030E0000269134342691343C2691A430168CB68FA
:1030F00023F4164323F00C031343CB600268536997
:1031000023F4407381690B4353610368344A93424B
:1031100006D002F58062934202D0FFF7A1FD01E0E4
:10312000FFF7AEFDE369B3F5004F2AD0002605187E
:1031300046EB06012D1846EB0101CB0043EA55731F
:10314000EA001546194663689A009B0F281846EB5B
:103150000101FDF723FD234DA5FB00325109642336
:1031600003FB11031B013233A5FB03235B0903F0AF
:10317000F00202EB011203F00F03216813448B608D
:1031800070BD0026051846EB06012D1846EB01011F
:10319000CB0043EA5573EA00154619466268334688
:1031A000921846EB0303281846EB0101FDF7F6FCE5
:1031B0000C4DA5FB00325109642303FB1103DB0016
:1031C0003233A5FB03235B095A0002F4F87202EBC9
:1031D000011203F00703216813448B60D0E700BF9E
:1031E000001001401F85EB512DE9F84305460F46BD
:1031F00016469946DDF820802C68246837EA0403D7
:103200000CBF01240024B4422DD1B8F1FF3FF3D00C
:10321000B8F1000F05D0FEF7A5FCA0EB0900404572
:10322000EAD92A6802F10C0353E8003F23F4D07373
:103230000C3242E800310029F3D12A6802F114036C
:1032400053E8003F23F00103143242E80031002923
:10325000F3D1202385F83D3085F83E30002385F8F2
:103260003C30032000E00020BDE8F88358B310B5DF
:10327000044690F83D300BB3242384F83D30226897
:10328000D36823F40053D3602046FFF71FFF226862
:10329000136923F4904313612268536923F02A03CE
:1032A00053612268D36843F40053D3600020206444
:1032B000202384F83D3084F83E3010BD80F83C3047
:1032C000FEF704FAD8E7012070472DE9F04182B0FB
:1032D0001E4690F83D30DBB2202B54D104460D46FB
:1032E0009046002953D0002A53D090F83C30012B4F
:1032F00051D0012380F83C3000230364212380F85F
:103300003D30FEF72FFC0746A4F82480A4F8268061
:10331000A368B3F5805F05D04FF00008002384F860
:103320003C3012E0236913B14FF00008F6E7A846DD
:103330000025F3E738F8023B2268C3F30803536023
:10334000E28C92B2013A92B2E284E38C9BB273B106
:1033500000963B46002280212046FFF745FFE0B95A
:10336000002DE7D015F8012B23685A60E8E7009696
:103370003B46002240212046FFF736FF78B9202344
:1033800084F83D3000E0022002B0BDE8F081012069
:10339000FAE70120F8E70220F6E70320F4E703202C
:1033A000F2E7704708B50168CA6822F04002CA60B7
:1033B000202280F83D20FFF7F4FF002008BD704771
:1033C00008B5806B0023C385C384FFF7F8FF08BDF1
:1033D000704790F83E30DBB2222B67D18368B3F59B
:1033E000805F4DD0826AB3F5805F04D0002B54D14A
:1033F0000369002B51D103685B681370836A013342
:103400008362C38D9BB2013B9BB2C385002B4FD11E
:1034100000B583B00268D36823F02003D36002684C
:10342000D36823F48073D3600268536923F00103E7
:103430005361202380F83E30036B012B33D10023EE
:103440000363026802F10C0353E8003F23F010030A
:103450000C3242E800310029F3D103681A6812F0F7
:10346000100F06D0002201921A6801925B68019346
:10347000019B818DFFF7ACFF002003B05DF804FBDA
:103480000269002AAED1826A03685B68C3F308034D
:103490001380836A02338362B3E703685B6803F0D7
:1034A0007F031370AAE7FEF7D5FAE5E7022070471D
:1034B0000020704730B583B0044602681368D068B6
:1034C000516913F00F0505D113F0200F02D010F051
:1034D000200F19D12DB111F0010119D110F4907FF5
:1034E00016D1216B01297DD013F0800F03D010F08D
:1034F000800F40F0158113F0400F03D010F0400F03
:1035000040F0128103B030BD2046FFF762FFF9E7BB
:1035100013F0010F06D010F4807F03D0226C42F02C
:103520000102226413F0040F04D019B1226C42F09E
:103530000202226413F0020F04D019B1226C42F08F
:103540000402226413F0080F07D010F0200F00D1FE
:1035500019B1226C42F008022264226C002AD1D0F8
:1035600013F0200F02D010F0200F29D123685B69DF
:1035700003F04003226C12F0080F00D163B3204621
:10358000FFF746FD23685B6913F0400F20D02268E7
:1035900002F1140353E8003F23F04003143242E8E1
:1035A00000310029F3D1A36B73B1614A1A65A06B96
:1035B000FEF756FF0028A5D0A06B036D9847A1E742
:1035C0002046FFF706FFD1E72046FFF7F8FE99E710
:1035D0002046FFF7F4FE95E72046FFF7F0FE0023B4
:1035E00023648FE713F0100F3FF47EAF10F0100F3D
:1035F0003FF47AAF0023019313680193536801935A
:10360000019B536913F0400F50D0A26B13685B68A5
:103610009BB2002B3FF476AFA18D99427FF672AF3B
:10362000E385D369B3F5807F37D0226802F10C03BC
:1036300053E8003F23F480730C3242E80031002944
:10364000F3D1226802F1140353E8003F23F0010391
:10365000143242E800310029F3D1226802F1140348
:1036600053E8003F23F04003143242E800310029C0
:10367000F3D1202384F83E3000232363226802F133
:103680000C0353E8003F23F010030C3242E80031F2
:103690000029F3D1A06BFEF799FEA18DE38D9BB2BB
:1036A000C91A89B22046FFF793FE2BE7A18DE38D5F
:1036B0009BB2C91A89B2E38D9BB2002B3FF422AFB3
:1036C00000293FF41FAF226802F10C0353E8003FCA
:1036D00023F490730C3242E800300028F3D12268C2
:1036E00002F1140353E8003F23F00103143242E8CF
:1036F00000300028F3D1202384F83E3000232363D8
:10370000226802F10C0353E8003F23F010030C324F
:1037100042E800300028F3D12046FFF759FEF1E6D9
:103720002046FFF7A3FCEDE62046FFF73BFEE9E667
:10373000C133000881628285C2850023036422228E
:1037400080F83E2080F83C30036923B10268D368DA
:1037500043F48073D3600268536943F001035361FB
:103760000268D36843F02003D3600020704708B597
:1037700090F83E30DBB2202B0DD171B17AB190F8C8
:103780003C30012B0DD0012380F83C300023036333
:10379000FFF7D0FF00E0022008BD0120FCE7012078
:1037A000FAE70220F8E780ED062B80ED020B80EDB2
:1037B000041B80ED003B704780ED080B80ED0A1B79
:1037C00070472DE9F0472DED068B82B082468DEDD6
:1037D000000B59EC118BD0E9044522462B462046BC
:1037E0002946FCF713FD06460F469AED0EAB53EC47
:1037F0001A2B40464946FCF707FD8046894602469B
:103800000B4630463946FCF7B7FE9AED109B53EC59
:10381000192BFCF7FBFC06460F469AED068BDAE9FE
:103820000C2351EC180BFCF7A7FE02460B46304662
:103830003946FCF7EBFC06460F46CAE912672246FA
:103840002B4620462946FCF797FE02460B4640468B
:103850004946FCF791FE80468946CAE91489DAE9AF
:10386000004522462B4630463946FCF785FE024687
:103870000B4651EC1A0BFCF7C9FC06460F46CAE989
:103880000E6722462B4640464946FCF775FE024627
:103890000B4651EC190BFCF7B9FC04460D46CAE97E
:1038A0001045DAE9028932463B46DDE90001FCF7C2
:1038B000ABFC02460B4640464946FCF75DFE2246FD
:1038C0002B46FCF7A1FC53EC182BFCF77FFF0246BC
:1038D0000B46CAE90C23DAE9084522462B46FDF7D8
:1038E000DBF808B1CAE90C45DAE90A4522462B465D
:1038F000DAE90C01FDF7B2F808B1CAE90C459AED16
:103900000C0B02B0BDEC068BBDE8F08710B58AB099
:1039100001220892002306930792009301930293D9
:103920000393059304930E4C69462046FEF7DAF99B
:103930002046FEF76FFA02212046FEF7AFFB0E236A
:1039400009930593074C69462046FEF7CBF92046BC
:10395000FEF760FA02212046FEF7A0FB0AB010BD78
:10396000F8090020200A002070B58AB0044601AB97
:1039700003AA0021FEF7F2FA764B9C4204D0764B64
:103980009C4274D00AB070BD039CA4F20123032BA7
:10399000F8D8013CE4B29DF804209DF8053043EAD4
:1039A000022318B2C4EBC4016C4A22F821306C4BDC
:1039B0001B6843B10A46694901EB8202D08110823B
:1039C000013B674A13609DF806301B021BB29DF84D
:1039D000072013436149C4EBC40001EB800213814B
:1039E0009DF808301B021BB29DF809502B435381F0
:1039F0009DF80A30137331F82030B2F90E209B1A6B
:103A0000B3F5805F27DD01EB80035A69013A5A6103
:103A1000524DE600C4EBC40205EB820335F92210D7
:103A2000D981596935F82200B3F91020801A00EBCA
:103A300041309861FCF736FD00224A4BFCF79CFDB3
:103A40000022494BFCF798FD341B05EB8405FDF77C
:103A50002DF8686096E713F5805FD9DAC4EBC403EC
:103A60003E4A02EB83035A6901325A61D0E7039C54
:103A7000A4F20123032B85D8013CE4B29DF8042075
:103A80009DF8053043EA022318B2C4EBC401374A5B
:103A900022F82130324B1B6843B10A46334901EB0F
:103AA0008202D0811082013B2D4A13609DF80630BE
:103AB0001B021BB29DF8072013432C49C4EBC40022
:103AC00001EB800213819DF808301B021BB29DF8A8
:103AD00009502B4353819DF80A30137331F820307D
:103AE000B2F90E209B1AB3F5805F27DD01EB80034E
:103AF0005A69013A5A611D4DE600C4EBC40205EB58
:103B0000820335F92210D981596935F82200B3F9B9
:103B10001020801A00EB41309861FCF7C3FC0022B2
:103B2000104BFCF729FD00220F4BFCF725FD341B41
:103B300005EB8405FCF7BAFF686023E713F5805FA7
:103B4000D9DAC4EBC403094A02EB83035A69013290
:103B50005A61D0E7F8090020200A0020D80C002084
:103B600024000020000033400000203F280E0020E9
:103B700070B582B00D4614460D494FF400720A60CC
:103B800000228A60CA6008220A610A4A0612167078
:103B9000507028129070D570201210715471181244
:103BA0009071D37101AB0448FEF762F902B070BDA9
:103BB000C00C0020B80C0020F809002007EE902A65
:103BC00007EE103A0170BDF8003006EE903AF8EEBC
:103BD000666AC0ED116A80ED100AB8EE477A80ED92
:103BE0000F7AF8EE677AC0ED0E7ABDF9043007EE71
:103BF000903AF8EEE77AC0ED127ABDF9083007EE98
:103C0000903AF8EEE77AC0ED017AC0ED030A80ED54
:103C1000041AC0ED051A00230363704780ED030A00
:103C2000704780ED040A704780ED050A704780ED0B
:103C3000010A704710B52DED028B0446B0EE408AA4
:103C4000C36C0365FDF78EFFE064236DC01A84F832
:103C5000540084ED068A94ED076A84ED086A236BAC
:103C60006363D4ED017A37EEC80A84ED070AB5EE36
:103C7000C00AF1EE10FA55DDF0EE407A94ED107ABC
:103C8000B4EEE77AF1EE10FA47D594ED037A20EE20
:103C9000077A84ED097AD4ED046A60EE266AD4EDE1
:103CA0000A7A76EEA76AC4ED0A6AD4ED057A30EE98
:103CB000460A27EE800A84ED0B0AD4ED0F7AF4EE63
:103CC000E76AF1EE10FA01DDC4ED0A7AD4ED0A6A72
:103CD000F1EE677AF4EEE76AF1EE10FA01D5C4ED81
:103CE0000A7AD4ED0A7A37EE277A30EE070A84EDA5
:103CF0000C0AD4ED0E7AB4EEE70AF1EE10FA01DD0B
:103D0000C4ED0C7A94ED0C7AF1EE677AB4EEE77AB2
:103D1000F1EE10FA01D5C4ED0C7A94ED0C0ABDEC6D
:103D2000028B10BDF1EE407AA8E70000064B8365D8
:103D3000064BC365064B0366064B4366064B83661C
:103D4000064BC366704700BFBD3B00081D3C000822
:103D5000233C0008293C00082F3C0008353C0008A3
:103D60002DE9F04F2DED028B85B007468B4692462C
:103D7000994600262AE0C6EBC603444C04EB031424
:103D80002046FFF7D3FFD4F85880414BD3ED007A9B
:103D9000FDEEE77A17EE903A1DB202954FF4FA5312
:103DA0000193002300933B4BD3ED001A3A4B93ED64
:103DB000001A3A4BD3ED000AB2EE040A41F28833FE
:103DC00043F6FF7201212046C0470136032ED2DDA3
:103DD000334B1F60C3F804B0C3F808A0C3F80C90BD
:103DE000002429E02E4B03EB8403D3ED007AC4EBCF
:103DF000C403264D05EB0315F8EEE77AC5ED017A0D
:103E00001A46284B03EB02139869FCF75DFB41EC63
:103E1000180B3846FCF746FBB0EE481AF0EE681A6D
:103E200041EC100B204B1868FFF7CBFC51EC100B4A
:103E3000FCF764FE28630134032CD3DD134BD3ED70
:103E40000C7A93ED287AD3ED446A93ED606ABDEE67
:103E5000C66AFDEEE66ABDEEC77AFDEEE77A16EEBB
:103E6000103A1BB216EE902A12B217EE101A09B2CF
:103E700017EE900A00B2FFF77BFE0A20FDF778FEEE
:103E800005B0BDEC028BBDE8F08F00BF780F0020BD
:103E90001400002000000020040000200C0000207E
:103EA000B8140020F8120020B40C0020014B186850
:103EB000704700BF2800002070B50D4E0D4D761BD9
:103EC000B61006D0002455F8043B01349847A642AA
:103ED000F9D1094E094D761B04F09EF9B61006D0B3
:103EE000002455F8043B01349847A642F9D170BD2F
:103EF000F0840008F0840008F8840008F0840008CA
:103F0000F0B4860746D0541E002A3CD0CAB20346FD
:103F100001E0013C37D303F8012B9D07F9D1032CB5
:103F20002AD9CDB245EA05250F2C45EA054534D9F5
:103F3000A4F1100222F00F0C03F1200716096744C8
:103F400003F1100242E9045542E902551032BA4227
:103F5000F8D1721C14F00C0F03EB021204F00F06E0
:103F600013D0331F23F003030433134442F8045BDC
:103F70009342FBD106F003042CB1CAB21C4403F8EF
:103F8000012B9C42FBD1F0BC704734461346002CF9
:103F9000F3D1F8E714460346C1E71A462646E0E7A0
:103FA00030B59BB0074D00916FF000440491694615
:103FB000CDE90245059400F03FF8009B00221A70FD
:103FC0001BB030BD0802FFFF30B4044C0D46134651
:103FD00001462A46206830BCFFF7E2BF28000020D7
:103FE000024B13B1024800F005B870470000000012
:103FF00001400008002301461A46184601F0B8BDEA
:1040000038B5084B084D5B1B9C1007D0043B1D4482
:10401000013C55F804399847002CF9D1BDE83840E7
:1040200004F000B9FC840008F8840008704700BF61
:10403000704700BF000000002DE9F04F2DED068B0A
:10404000CFB08B4617460893814602F02FFF0368D6
:1040500011931846FDF714F8BBF80C3010901E06AB
:1040600004D5DBF81030002B01F0188000239FED01
:10407000747BCDE92333CDE91333CDE915330C93AC
:104080001293049325AB229398463B788DED0E7BDB
:1040900009EE10BA002B00F059813C4604E014F8F8
:1040A000013F002B00F0A880252BF8D1E51B40F044
:1040B000A6802378002B00F04981002305938DF81A
:1040C0006B300293661C4FF0FF33647803932B250B
:1040D0004FF0200A0136A4F120035A2B00F2B480DD
:1040E000DFE813F09402B200B2008E02B200B20018
:1040F000B2006A00B200B200F2010302B200FD0198
:10410000A302B2009D025B005B005B005B005B00F2
:104110005B005B005B005B00B200B200B200B2006B
:10412000B200B200B2004901B2009501C6024901D5
:1041300049014901B200B200B200B2008802B200E7
:10414000B2000702B200B200B200A301B2007802CE
:10415000B200B200BC07B200B200B200B200B200BE
:10416000B200B200B2004901B2009501C901490193
:10417000490149013A02C9018400B2005B02B20060
:104180004302B50764028400B200A3018200B807AD
:10419000B200B2009307B2008200A4F13003002203
:1041A00016F8014B02EB820203EB4202A4F130034A
:1041B000092BF5D905928EE7484602F077FE436851
:1041C00015931846FCF75CFF034648461C461693B9
:1041D00002F06CFE8268139234B1139B23B1139BDF
:1041E0001B78002B41F09181347873E7029B34787F
:1041F00043F0200302936DE7E51B00F0A780DDE9A3
:10420000233201332A44072BCDE92332C8F800704A
:10421000C8F8045006DC08F10808049A23782A44F8
:10422000049247E719EE101A22AA484603F0C8FC88
:10423000002841F0EF830DF19408EEE7AFF3008022
:1042400000000000000000000996002C7ED0002332
:104250001A464FF0010A8DF8D4408DF86B30079262
:1042600003920A920D920B92CDF818A035AF029BE3
:10427000029913F0020318BF0AF1020A11F0840B2D
:1042800005D10599A1EB0A06002E00F3B583249D04
:1042900072B1239A013201350DF16B000121072A19
:1042A000CDE92325C8E9000100F3E58308F10808FA
:1042B0006BB1239B013302351BA90222072BCDE9E9
:1042C0002335C8E9001200F3E58308F10808BBF1C3
:1042D000800F00F09B82039B069A9E1A002E00F32B
:1042E000DD82029BDB0500F13582239B069AC8F82C
:1042F000007001331544072B2495C8F8042023933C
:1043000000F3598308F10808029B590705D5059B5E
:10431000A3EB0A04002C00F3CA83DDE90432524502
:10432000ACBF9B1853440493002D40F0F48200234B
:104330002393079B1BB10799484602F0B3FC0DF18C
:104340009408099F3B78002B7FF4A7AE249B19EEBD
:1043500010BA002B41F0B482BBF80C3013F0400FC0
:10436000049B18BF4FF0FF33049304984FB0BDEC8B
:10437000068BBDE8F08F089B0996073323F00703EF
:10438000B3EC027B8DED0E7BDDE90E56089326F033
:1043900000430AEE903A0AEE105A5BEC1AABB04BAF
:1043A000504659464FF0FF32FCF7D8FE002840F047
:1043B0000B85AB4B4FF0FF3250465946FCF758FB8C
:1043C000002840F001850022002328463146FCF7F2
:1043D00045FB002841F071809DF86B20A14FA24B56
:1043E000029800214FF0030A20F08000079102900C
:1043F000472CC8BF1F46CDF818A003910A910D9114
:104400000B91002A3FF433AF0AF1010A2FE7089B12
:10441000099653F8042B8DF8D42000210A464FF05A
:10442000010A08938DF86B1019E7089D099655F855
:10443000047B00268DF86B60002F00F03F86039A06
:104440001346013300F0F28731463846FCF728FD69
:104450000790002801F04881079B0396DA1B06921B
:10446000334622EAE27A08959DF86B2007930A9377
:104470000D930B93C5E7029B09969D0640F10181C0
:10448000089B073323F007031946F1E8022308913C
:1044900092469B46002A73F10003C0F20381039BFE
:1044A000013300F06C85029B23F080055AEA0B0370
:1044B00040F09182039B002B40F0948202950023F0
:1044C000039306934EAF18E1089B53F8042B059213
:1044D000002A80F25684059A089352420592029B64
:1044E000347843F004030293F4E534788DF86B508C
:1044F000F0E5029B099643F010030293029B990694
:1045000040F10C84089B073323F00703F3E802AB68
:104510000893029B23F48065002300228DF86B2012
:10452000039A1146013100F0CD8025F080010291FF
:104530005AEA0B0140F04B82002A40F02387002BFF
:10454000BDD115F00103069300F01F8430238DF8D0
:1045500037310DF23717D0E03478029B682C00F029
:10456000968543F040030293B4E5029B09969E06AC
:1045700000F1F984029BDD0600F10A87029B5C06CC
:1045800000F1D487029B980540F10287089B0499AB
:1045900053F8042B08931170D3E63478029B6C2CEB
:1045A00000F06E8543F01003029393E5089B099693
:1045B00047F6300153F8042BADF86C1002990893BC
:1045C0002A4B129341F0020592464FF0000B022352
:1045D0007824A2E7029B099643F01005AF0640F14C
:1045E0008D83089B073323F00703F3E802AB08939E
:1045F000012392E7029B347843F00803029369E5B4
:10460000029B347843F00103029363E59DF86B301D
:10461000002B7FF4E9AD34788DF86BA05AE5029B4E
:10462000347843F08003029354E5324612F8014B8C
:104630002A2C01F07782A4F13003092B164698BF8B
:10464000002201F2398116F8014B02EB820203EBE2
:104650004202A4F13003092BF5D903923BE500BFD8
:10466000FFFFEF7F64820008688200087482000800
:10467000029B099643F010030293029B9D063FF5AF
:10468000FFAE029BD80640F18A83089B53F8042BA7
:1046900008934FEAE27B5B46002A73F100039246DF
:1046A000BFF6FDAE039A029DDAF1000A11464FF003
:1046B0002D036BEB4B0B01318DF86B304FF0010389
:1046C0007FF433AF012B00F08681022B4EAF22D155
:1046D00012984FEA1A130AF00F0143EA0B734FEADC
:1046E0001B129A469346435C07F8013D5AEA0B03B6
:1046F000EFD14EABDB1B0295069300230399079382
:104700000A930D930B93069B9DF86B208B42B8BFC9
:104710000B469A4675E64FEADA0242EA4B724FEAD6
:10472000DB010AF007038B46924630335AEA0B014D
:104730003A4607F8013DEED1E907DAD5302BD8D05B
:104740003023023A07F8013C4EAB9B1A02950693C0
:104750001746D2E7652C40F3EA80DDE90E0100221E
:104760000023FCF771F9002800F0E381239BD34A72
:10477000C8F80020013301350122072BCDE923358C
:10478000C8F8042000F3C68508F108081C9B0C9AA1
:10479000934280F2F182239B119AC8F80020109A6C
:1047A000C8F8042001331544072B2495239300F304
:1047B000598408F108080C9B5C1E002C7FF7A4ADFF
:1047C000102C239BDFF8FCB240F3B5855F46102622
:1047D00019EE10BA05E008F10808103C102C40F35F
:1047E000A98501331035072BCDE92335C8E90076BB
:1047F000F1DD22AA5946484603F0E2F9002840F0CC
:104800001D82DDE923350DF19408E6E7059BA3EB56
:104810000A06002E7FF75FAD102E239ADFF8A4B2B0
:1048200029DD58462946A34619EE105A102304469E
:1048300004E0103E102E08F1080818DD0132103196
:10484000072ACDE92321C8E90043F2DD22AA29463F
:10485000484603F0B5F9002840F0EF81103E102ED5
:10486000DDE923210DF194084FF01003E6DC234627
:104870000D465C469B4601323544072ACDE9232587
:10488000C8F800B0C8F8046000F36E85039B069A70
:104890009E1A002E08F108087FF723AD102E239AE8
:1048A000DFF820B229DD58462946A34619EE105AF2
:1048B0001023044604E0103E102E08F1080818DD0D
:1048C00001321031072ACDE92321C8E90043F2DD86
:1048D00022AA2946484603F073F9002840F0AD812A
:1048E000103E102EDDE923210DF194084FF0100346
:1048F000E6DC23460D465C469B4601323544072ADA
:10490000CDE92325C8F800B0C8F8046000F3E881B9
:1049100008F10808E5E419EE101A22AA484603F047
:104920004FF900283FF403AD19EE10BA86E10C9B55
:10493000239C012B40F38C81013401350123072C8A
:10494000CDE92345C8F80070C8F8043000F3F881B9
:1049500008F10808109B119A01341D44072CCDE979
:104960002345C8E9002300F3F98108F10808002372
:10497000DDE90E010022FCF767F80C9B002840F0EF
:104980008581013B013401371D44072CCDE92345C6
:10499000C8F80070C8F8043000F36A8108F108080C
:1049A000149A013415441EAB072CCDE92345C8E900
:1049B00000327FF7A7AC19EE101A22AA484603F07E
:1049C000FFF80028B0D1249D0DF194089CE4012B40
:1049D000029D7FF47AAEBBF1000F08BFBAF10A0F57
:1049E00080F0D5820AF1300A01238DF837A10295B3
:1049F00006930DF2371780E6102EDDE9232129DD1D
:104A00001793102543460846B846274619EE104A24
:104A100004E0103E102E03F1080316DD0132284990
:104A20001030072ACDE92320C3E90015F1DD22AAC1
:104A30002146484603F0C4F8002840F05084103E58
:104A4000102EDDE9232025ABE8DC3C46474698469E
:104A5000179B014601321A48C8F800008D19072A31
:104A6000CDE92325C8F8046000F327849DF86B2066
:104A700008F108080CE419EE101A22AA4846179308
:104A800003F09EF800287FF44FAF249D179B0DF193
:104A900094080DE419EE101A22AA484603F090F883
:104AA00000287FF441AF249D0DF194080FE4102CF1
:104AB000239B26DD19EE107A10260AE0A482000856
:104AC000A8820008B8820008103C102C08F10808E1
:104AD00017DD0133BA4A1035072BCDE92335C8E974
:104AE0000026F1DD22AA3946484603F069F800287D
:104AF00040F01E84103C102CDDE923350DF19408A4
:104B0000E7DC0133AE4AC8F800202544072BCDE985
:104B10002335C8F804407FF700AC19EE101A22AA1A
:104B2000484603F04DF800287FF4FEAE249DFFF7C1
:104B3000F4BB1C9A002A40F38A83DDE90B329342CE
:104B4000A8BF1346002B1C460DDD239BC8F8007040
:104B500001332544072B2495C8F80440239300F320
:104B60005B8508F108080B9B002CA8BF1B1B002BC2
:104B70001C4600F3B3820B9B3B449B46029B5E05A5
:104B800000F1D3821C9B0C9A934203DB029AD40758
:104B900040F1C284239A1199C8F800101099C8F8FE
:104BA000041001320D44072A2495239200F34F8507
:104BB00008F108080C9ABC18A4EB0B04D31A9C4209
:104BC000A8BF1C46002C0DDD239AC8F800B00132A6
:104BD0002544072A2495C8F80440239200F35B86F5
:104BE00008F10808002CACBF1C1B1C46002C7FF7EA
:104BF0008BAB102C239BDFF8CCB140F39C835F463A
:104C0000102619EE10BA05E008F10808103C102C27
:104C100040F3908301331035072BCDE92335C8E9E4
:104C20000076F1DD22AA5946484602F0C9FF28B9AC
:104C3000DDE923350DF19408E8E7AB46079B002B2F
:104C40003FF48AAB0799484602F02CF8FFF784BB83
:104C5000029BD8073FF570AE013401350123072CC4
:104C6000CDE92345C8F80070C8F804307FF796AE48
:104C700019EE101A22AA484602F0A2FF00287FF47B
:104C800053AEDDE923450DF1940889E65E1E002E42
:104C90007FF786AE102EDFF82CB140F3BD83CDF840
:104CA0000CA0102719EE10AA05E008F10808103E24
:104CB000102E40F3AF8301341035072CCDE9234586
:104CC000C8E900B7F1DD22AA5146484602F078FF54
:104CD000002840F0FF85DDE923450DF19408E6E763
:104CE00019EE101A22AA484602F06AFF00287FF443
:104CF0001BAE249D0DF19408FFF7F3BA089AEE0657
:104D000052F8041B08924FF0010343D468063ED5C5
:104D10001FFA81FA4FF0000BFFF7FFBB029BDA0688
:104D200000F11881029B5B0640F18983089B53F8D0
:104D3000042B08931FFA82FA4FF0000BFFF7E9BB30
:104D400019EE101A22AA484602F03AFF00287FF412
:104D5000EBADDDE923450DF19408FBE519EE101AE2
:104D600022AA484602F02CFF00287FF4DDADDDE9E1
:104D700023450DF19408FAE5029BDF077FF5C4AAED
:104D800009E534780893FFF7A5B94EAFB5E4AA0555
:104D900000F1D4838A464FF0000BFFF7BEBB029BA5
:104DA000590640F16983089B53F8042B08930FFAC6
:104DB00082FA4FEAEA7B52465B46FFF76BBB00BFC5
:104DC000A8820008B8820008DDE90E0102460B4601
:104DD000FCF7C4F90546002840F00F86612C00F06E
:104DE000C485412C00F0AD84039B24F020065A1C9E
:104DF000069600F0C683472E00F0BC85DDE90E0163
:104E0000029A002942F480720A924FF00003C0F225
:104E1000D28541EC180B17930793462E00F043847C
:104E2000452E40F02384B0EE480AF0EE680A039B5A
:104E300020A95D1C1DABCDE900312A461CAB022127
:104E4000484600F069FF074605440A9BDDF808B0B4
:104E5000029351EC180B00220023FBF7F5FD00280C
:104E600000F0CE832B46DB1B0C93069B472B00F0F8
:104E70009983069B462B00F044841C9B0B930B9B51
:104E8000069A013B412A1C9300F0B185E2B2002151
:104E9000002BB8BF0B9B8DF87820BABFC3F101037C
:104EA0002D222B22092B8DF8792040F3B9850DF1A5
:104EB000870EDFF85CC475468CFB0321DA17C2EB62
:104EC000A10202EB8201A3EB41011E463031632EA9
:104ED000284605F8011C134605F1FF35ECDC30339C
:104EE000DAB2831E9E45294605F8012C40F23B8626
:104EF0000DF17A0301E011F8012B03F8012B8E4527
:104F0000F9D10DF189030DF17A021B1A13441EAA7F
:104F10009B1A14930C9B149A012B1A44069240F38B
:104F2000E385069B109A1344069300232BF48066B6
:104F30000A930D930B93069B46F48072029223EA28
:104F4000E37A179B002B40F054839DF86B2003936A
:104F5000FFF757BA089B53F8042B089392464FF07B
:104F6000000BFFF7D6BA089B53F8041B0893049B69
:104F7000DD171A462B46C1E90023FFF7E2B9BBF162
:104F8000000F08BFBAF10A0F029DFFF42BAD05F424
:104F9000806600230295CDF81880139DA0464EAF81
:104FA00034461E4609E0FBF7F9FDBBF1000F08BFD0
:104FB000BAF10A0F1FD382468B460A2200235046BD
:104FC0005946FBF7EBFD94460CF1300C07F801CC89
:104FD000504659460A2200230136013F002CE2D0F8
:104FE00095F800C06645DED1FF2EDCD09B4508BF9A
:104FF000924580F067824EABDB1B44461395DDF88B
:1050000018800C960693FFF778BBBC4B0996129359
:10501000029B9F0640F10581089B073323F007039D
:10502000F3E802AB0893029AD0070AD55AEA0B03B9
:1050300007D0302342F002028DF86D4002928DF8C5
:105040006C30029B23F480650223FFF766BA099651
:10505000FFF754BA029D0996FFF7C0BAA84B09960C
:105060001293D5E719EE101A22AA484602F0A8FDBD
:1050700000287FF459AC249D0DF19408FFF79BBBE9
:1050800043F02003747802930136FFF723B843F40A
:105090000073747802930136FFF71CB8402148462C
:1050A00001F008FFCBF80000CBF81000002800F05A
:1050B00044854023CBF81430FEF7D8BF039B0A97F2
:1050C000062B28BF062303970D970B9707973A46A1
:1050D0009A468C4F08950693FFF793B9102C239BA3
:1050E000DFF824B240F3DB812A4610265D4619EE34
:1050F00010BA05E008F10808103C102C40F3CD81EF
:1051000001331032072BCDE92332C8E90056F1DD17
:1051100022AA5946484602F053FD00287FF48EAD7E
:10512000DDE923320DF19408E6E70C9BCDF818A0D9
:105130005E46DDF834B00B97FB1803934246DDF86A
:1051400058A0139F0A9B19EE108A2846BBF1000F46
:105150002FD0002B30D1013F0BF1FF3B239B159942
:10516000116001335044072B2490C2F804A023930C
:1051700062DC083203993B788C1B9C42A8BF1C461A
:10518000002C0BDD239B166001332044072B249059
:105190005460239300F3DC803B780832002CACBFD2
:1051A0001C1B1C46002C0BDC1E440A9BBBF1000F91
:1051B000CFD1002B00F0E8810A9B013B0A93CDE799
:1051C000102C23991FDD10250B4604E0103C102CF9
:1051D00002F1080216DD01334B491030072BCDE9EF
:1051E0002330C2E90015F1DD22AA4146484602F00B
:1051F000E7FC002840F08681103C102CDDE92330CC
:1052000025AAE8DC1946404B13604B1C2044072BB1
:10521000CDE92330546000F30D823B7808321E4400
:10522000C3E7029BDE065CD5089B53F8042B08936A
:1052300092464FF0000BF6E622AA4146484602F09D
:10524000BFFC002840F05E81249825AA92E7239BAA
:105250002E49C8F80010013301350121072BCDE993
:105260002335C8F8041000F33F8108F10808002A2C
:1052700040F09680029B0C9A03F0010313433FF425
:1052800043A8239B119AC8F80020109AC8F804205C
:1052900001331544072B2495239300F3558108F11E
:1052A00008080C9A01331544072BCDE92335C8E9CA
:1052B00000727FF727A8FFF77EBB19EE101A22AA0B
:1052C0004846179302F07CFC00287FF42DAB9DF834
:1052D0006B20249D179B0DF19408FEF7D9BFA346C0
:1052E000ACE4029B5D0640F1B980089B53F8042BA7
:1052F00008931FFA82FA4FF0000B94E674820008BC
:10530000888200089C820008B8820008A4820008F5
:105310006766666619EE101A22AA484602F050FC2B
:1053200000287FF401AB249D0DF19408FFF72EBAFD
:10533000BB4683E4BB4601332544072BC8F800B0C5
:10534000CDE92335C8F804407EF7DCAFFFF733BB67
:1053500022AA4146484602F033FC002840F0D280A1
:105360003B78249825AA19E719EE101A22AA484674
:1053700002F026FC00287FF4D7AA249D0DF19408A2
:10538000FEF7A9BF012B029D7FF49FA9FFF72ABB5F
:10539000089B049953F8042B11600893FEF7D1BFC2
:1053A000239B1199C8F800101099C8F80410013314
:1053B0000D44072B2495239300F3C68008F10808B9
:1053C000002ABFF66EAF54421032DFF8FCB680F20E
:1053D000B5822A4610265D4619EE10BA05E008F19E
:1053E0000808103C102C40F3A78201331032072B21
:1053F000CDE92332C8E90056F1DD22AA59464846D4
:1054000002F0DEFB00287FF419ACDDE923320DF158
:105410009408E6E7DDF80CA001343544072CCDE90B
:105420002345C8E900B67FF7B9AA21E43846FBF75F
:1054300027FE3346039602460690FFF712B8029BFA
:1054400013F4007F089B53F8042B089314BF5FFAF2
:1054500082FA92464FF0000BFFF75BB8029B13F401
:10546000007F089B53F8042B089314BF5FFA82FA5D
:1054700092464FF0000BD6E5029B13F4007F089B89
:1054800053F8042B3FF404A94FFA82FA4FEAEA7B5F
:10549000089352465B46FEF7FDBFAB461546013307
:1054A0002544072BCDE92335C8F800B0C8F80440DF
:1054B00059DC08F10808FFF75EBB2D228DF86B2040
:1054C000FEF78CBF169B1599FF1A1A46384602F054
:1054D00043FB6B7803B101350A220023504659463D
:1054E0000026FBF75BFB66E519EE101A22AA484678
:1054F00002F066FB00287FF417AA1C9A249D0DF188
:105500009408B4E6C346FFF799BB029B347843F492
:1055100080630293FEF7DEBD0C9ABC18A4EB0B046B
:10552000D31A9C42A8BF1C46FFF75CBB089B04999A
:1055300053F8042B08931180FEF703BF5FFA81FA3A
:105540004FF0000BFEF7E9BF19EE101A22AA4846E9
:1055500002F036FB00287FF4E7A9DDE923351C9A29
:105560000DF194082CE719EE101A22AA484602F011
:1055700027FB00287FF4D8A9249D0DF19408FFF79C
:10558000FABA0623039339E41397DDE90B73FB188A
:105590009E42B346DDF818A00546904628BF9B46BC
:1055A000FFF7F0BA1C9B0B93DA1C02DB039A9342C1
:1055B00004DD023C24F02003069360E4DDE90B31B6
:1055C0008B42C0F2B4801BF0010F00F03882109AB9
:1055D000134406931BF4806F03D00B9B002B00F346
:1055E0003882069B672423EAE37A00230A930D930B
:1055F000A7E42D2200238DF86B200393FEF704BF50
:10560000209BAB42BFF42FAC30215A1C2092197062
:10561000209B9D42F9D826E419EE101A22AA48468A
:1056200002F0CEFA00287FF47FA9249D0DF19408A2
:10563000FFF799BA22AA4146484602F0C1FA00286B
:105640007FF460AF3B78249825AA1E44ADE519EE9F
:10565000101A22AA484602F0B3FA00287FF464A97F
:105660001C9B249D0DF19408FFF7A4BA20AA1DAB42
:10567000CDE90032B0EE480AF0EE680A039A1CAB9E
:105680000221484600F048FB472E07461AD1029BEC
:10569000DA0700F122810A9A029247229B4606927B
:1056A000209BFFF7E0BB20AA1DABCDE90032B0EE96
:1056B000480AF0EE680A039A1CAB0321484600F042
:1056C0002BFB0746039B462E07EB03057FF4BDAB80
:1056D0003B78302B00F0FA811C9BDDF808B01D44AC
:1056E0000A9B0293FFF7B5BBDDF80CA09DF86B2079
:1056F000CDF818A0039008950A900D900B90FEF736
:1057000080BE1C9A0B92002A40F3F78103990BF09C
:1057100001030B4340F096810B9B069366241BF418
:10572000806F40F09781069B23EAE37A5DE70C9B4C
:10573000109A9A180B9B0692002B40F3B0816724B5
:10574000EDE730238DF86C3058238DF86D30029BD7
:1057500043F00205039B632B00F3E48000230793CF
:1057600035AFDDE90E01029A029542F4817224F010
:10577000200600290A920696C0F28280002341EC9E
:10578000180B1793612C00F01881412C7FF445AB66
:10579000B0EE480AF0EE680A1CA802F095F9002263
:1057A0004FF07F5351EC100BFAF7E6FE0022002376
:1057B00082468B46FBF748F908B101231C93BC4B8A
:1057C0000B93039B19973E4609EE909A0B9F1894F2
:1057D0005D1ECDF8308003E0FBF736F9013D08BBD4
:1057E000B44B002250465946FAF7C6FE8946804619
:1057F000FBF75CF90446FAF755FE02460B464046B5
:105800004946FAF701FD17F804C0B5F1FF3FB1466C
:10581000824606F801CB8B464FF000024FF00003A2
:10582000A846D9D1A44B199F002250465946454657
:10583000DDF83080CDE90C94189C19EE909AFBF7B6
:105840002BF9002852D19C4B504659460022FBF7B9
:10585000FBF810B10D9BD90748D4002D2B4606DB71
:1058600001333344302206F8012BB342FBD1F31B42
:105870000C930A9BDDF808B00293FFF7F6BA079085
:10588000DDE90E2303F1004308EE903A2D2308EEE4
:10589000102A179376E719EE101A22AA484602F04A
:1058A0008FF900287FF440A81C9B0C9A249DD31AE2
:1058B0000DF19408FFF796B900230393FEF70BBC94
:1058C00019EE101A484622AA02F07AF9BBF80C30F9
:1058D000FEF744BDD346FFF7B1B9DDE902B3FD18C9
:1058E0000A9B029347230693FFF7B3BA0C9B2093BE
:1058F0000B9B16F8012CD97B8A42334609D1302004
:1059000003F8010C209B5A1E209213F8012C91429F
:10591000F6D0392A0BBF0B9A0132927AD2B203F831
:10592000012CA4E7591C484601F0C4FA0746002898
:1059300000F00F81079014E7AB461546013325446C
:10594000072BCDE92335C8E900B47FF7A8AC19EEE1
:10595000101A22AA484602F033F900287EF4E4AF78
:10596000DDE923350DF194089BE430238DF86C308C
:105970007823EAE6002B1A4608BF01220F9B039208
:10598000029A002B42F480720A92FFF678AFDDE9AA
:105990000EAB20AA1DABCDE900324BEC10AB039A45
:1059A00017951CAB0221484600F0B6F94BEC18AB3A
:1059B000074607956BE6079362E71CA8B0EE480A16
:1059C000F0EE680A02F080F800224FF07F5351ECAD
:1059D000100BFAF7D1FD0022002382468B46FBF71D
:1059E00033F808B101231C93344B0B93E9E604F11F
:1059F0000F02D2B20121FFF74BBA0F9B304F002BA1
:105A0000B4BF2D229DF86B202E4BB8BF8DF86B20B4
:105A1000FEF7E6BC19EE10BABBF80C30FEF79EBCE0
:105A2000002967D130228DF87A200DF17B023033C6
:105A300002F8013B1EABD31A1493FFF76BBA0B9B12
:105A40000693C7E5109B02EB030A514406916624B6
:105A500065E6672413990B78FF2B76D000250B9A07
:105A6000284603E001300131FF2B08D0934206DACB
:105A7000D21A4B78002BF5D10B780135F4E713914E
:105A80000B920D900A950A9A0D9B06991344169A4B
:105A900002FB0313069323EAE37AFFF752BAC3F13A
:105AA00001031A44069222EAE27A67249DE500BFC8
:105AB00088820008000030400000E03F7482000847
:105AC0006C82000870820008B882000851EC180B44
:105AD00000220023FAF7B8FF00287FF4FDAD039BF6
:105AE000C3F101031C93F8E51BF0010F3FF41DAA5D
:105AF000FFF717BA0DF17A0299E7039B0BF0010645
:105B000056EA030205D14FF0010ACDF818A0662429
